:100000000C9448000C945A000C945A000C945A001A
:100010000C945A000C945A000C945A000C945A00F8
:100020000C945A000C945A000C945A000C946503DA
:100030000C945A000C945A000C945A000C945A00D8
:100040000C945A000C945A000C945A000C945A00C8
:100050000C945C000C945A000C945A000C945A00B6
:100060000C945A000C945A000C945A000C945A00A8
:100070000C945A000C945A000C945A007A00980080
:10008000A100A400AD00B600B900BC008D00910035
:1000900011241FBECFEFD8E0DEBFCDBF21E0A0E02E
:1000A000B1E001C01D92A231B207E1F70E947804CD
:1000B0000C94B5070C9400001F920F920FB60F928C
:1000C00011242F933F934F935F936F937F938F935D
:1000D0009F93AF93BF93EF93FF93E091C6008E2F52
:1000E00090E0FC01F097EA30F10530F4E25CFF4F5C
:1000F0000C94E6040E945501FF91EF91BF91AF91DE
:100100009F918F917F916F915F914F913F912F912F
:100110000F900FBE0F901F90189582B18F7082B90B
:10012000EBCF81E090E09093010180930001E4CF58
:100130008091020190910301892BF1F60E945E01EA
:10014000DBCF0E94A401D8CF8091020190910301DE
:10015000892B91F60E943A02CFCF809102019091B3
:100160000301892B49F60E94E801C6CF0E948C0248
:10017000C3CF0E94DA02C0CF82B1806F82B9BCCFF8
:1001800080910401909105010895CF92DF92EF9242
:10019000FF926B017C0184B1806F84B98AB1806366
:1001A0008AB95C985D982F982E982D982C980E946B
:1001B000280320E030E040E85FE3C701B6010E9479
:1001C000430718162CF4FF90EF90DF90CF9008951E
:1001D0002AE939E949E95EE3C701B6010E949005C1
:1001E00087FDF1CFC0920601D0920701E09208018D
:1001F000F0920901C701B6010E944403909389005F
:100200008093880060910601709107018091080138
:10021000909109010E94440390938B0080938A007F
:10022000FF90EF90DF90CF900895CF92DF92EF9202
:10023000FF92C0900601D0900701E0900801F09075
:10024000090120E030E040E85FE3C701B6010E9409
:10025000430718162CF4FF90EF90DF90CF9008958D
:100260002AE939E949E95EE3C701B6010E94900530
:1002700087FDF1CFC701B6010E9444039093890026
:1002800080938800609106017091070180910801B8
:10029000909109010E94440390938B0080938A00FF
:1002A000FF90EF90DF90CF9008951092050110928B
:1002B00004012F982E982D982C980895CF92DF92B4
:1002C000EF92FF9281E090E090930501809304010A
:1002D000C0900601D0900701E0900801F09009015C
:1002E00020E030E040E85FE3C701B6010E94430729
:1002F00018164CF42F9A2E982D9A2C98FF90EF9068
:10030000DF90CF9008952AE939E949E95EE3C70112
:10031000B6010E94900587FDEDCFC701B6010E948E
:100320004403909389008093880060910601709146
:10033000070180910801909109010E944403909364
:100340008B0080938A00D6CFCF92DF92EF92FF92FC
:100350001092050110920401C0900601D09007018F
:10036000E0900801F090090120E030E040E85FE310
:10037000C701B6010E94430718164CF42F982E9A15
:100380002D982C9AFF90EF90DF90CF9008952AE956
:1003900039E949E95EE3C701B6010E94900587FD8E
:1003A000EDCFC701B6010E9444039093890080936A
:1003B0008800609106017091070180910801909179
:1003C00009010E94440390938B0080938A00D6CF4A
:1003D000CF92DF92EF92FF9281E090E0909305013F
:1003E00080930401C0900601D0900701E0900801BD
:1003F000F090090120E030E040E85FE3C701B6017A
:100400000E9443071816ACF41092890010928800DD
:10041000809186009091870090938B0080938A0052
:100420002F982E9A2D9A2C98FF90EF90DF90CF90D6
:1004300008952AE939E949E95EE3C701B6010E9456
:10044000900587FDE1CFC701B6010E944403909358
:100450008900809388006091060170910701809166
:100460000801909109010E94440390938B008093AE
:100470008A00CACFCF92DF92EF92FF9281E090E0A4
:100480009093050180930401C0900601D09007016C
:10049000E0900801F090090120E030E040E85FE3DF
:1004A000C701B6010E9443071816ACF410928B00E6
:1004B00010928A0080918600909187009093890025
:1004C000809388002F9A2E982D982C9AFF90EF9069
:1004D000DF90CF9008952AE939E949E95EE3C70141
:1004E000B6010E94900587FDE1CFC701B6010E94C9
:1004F0004403909389008093880060910601709175
:10050000070180910801909109010E944403909392
:100510008B0080938A00CACFCF92DF92EF92FF9236
:100520002AE939E949E15EE360910601709107012A
:1005300080910801909109010E9424056B017C01C2
:1005400020E030E040E85FE30E94430718162CF4F7
:10055000FF90EF90DF90CF9008952AE939E949E9BB
:100560005EE3C701B6010E94900587FDF1CFC092FE
:100570000601D0920701E0920801F0920901C7013B
:10058000B6010E9444039093890080938800609193
:1005900006017091070180910801909109010E9464
:1005A000440390938B0080938A00FF90EF90DF903C
:1005B000CF900895CF92DF92EF92FF922AE939E926
:1005C00049E15EE3609106017091070180910801A5
:1005D000909109010E9423056B017C0120E030E02D
:1005E00040E85FE30E94430718162CF4FF90EF9059
:1005F000DF90CF9008952AE939E949E95EE3C70120
:10060000B6010E94900587FDF1CFC0920601D092FD
:100610000701E0920801F0920901C701B6010E94AA
:100620004403909389008093880060910601709143
:10063000070180910801909109010E944403909361
:100640008B0080938A00FF90EF90DF90CF90089509
:100650008AB180638AB9E1E8F0E0808182618083B9
:10066000E0E8F0E08081806A80838FEF9FEF9093D5
:100670008700809386001092890010928800109263
:100680008B0010928A000895CF92DF92EF92FF9232
:100690006B017C01609186007091870080E090E0A2
:1006A0000E944306A70196010E9448070E94070680
:1006B000CB01FF90EF90DF90CF900895409A85E3B3
:1006C0008A95F1F70000409808951F920F920FB697
:1006D0000F9211242F933F934F935F936F937F93C8
:1006E0008F939F93AF9320910A0130910B0140911A
:1006F0000C0150910D0160910E0170910F018091DC
:10070000100190911101A1E00E940E0520930A01B1
:1007100030930B0140930C0150930D0160930E0137
:1007200070930F018093100190931101AF919F91ED
:100730008F917F916F915F914F913F912F910F908A
:100740000FBE0F901F9018957F928F929F92AF923D
:10075000BF92CF92DF92EF92FF920F931F93CF93AE
:10076000DF93319BFECF10920A0110920B01109281
:100770000C0110920D0110920E0110920F011092B7
:100780001001109211011092B2008091B1008160AD
:100790008093B1001092B2008091700081608093CC
:1007A00070003199FECF7090B200A0900A01B09015
:1007B0000B01C0900C01D0900D01E0900E01F09063
:1007C0000F01E0911001109111019501A601B701EF
:1007D0008E2F912F04E00E94EC040E2F0E941A0528
:1007E0004901D42FC52FB62FA72FF82FE92F04E0EA
:1007F0000E94EC0459016A017B018C0194014D2F88
:100800005C2F6B2F7A2F8F2F9E2F0E940505A72C10
:10081000B12CC12CD12CE12CF12C00E010E00E9475
:1008200005050E943D0620E034E244E75BE40E94B7
:10083000950520E03CEF45E057E40E94480720E0A2
:1008400030E040E05FE30E9448071092B20010924F
:10085000B1001092B300DF91CF911F910F91FF90E3
:10086000EF90DF90CF90BF90AF909F908F907F9050
:100870000895389A409841988AE08A95F1F700C027
:1008800008951092C50087E68093C40088E980939C
:10089000C100E2ECF0E08081877F8083808184600A
:1008A000808308959091C00095FFFCCF8093C6008F
:1008B00008958091C00087FFFCCF8091C600089505
:1008C000FC012081222351F031969091C00095FFC8
:1008D000FCCF2093C60021912111F7CF089590916C
:1008E000C00095FFFCCF8093C60080E090E00895A3
:1008F0007894579A81B1806F81B95F9A82B18F7075
:1009000082B9239A2B980E94410460E070E080E055
:100910009FE30E94C5000E943904C8E00E945E0364
:100920000E94A40320E030E048EC51E40E949005CE
:1009300087FF3BC08BB180588BB9809102019091A9
:100940000301019690930301809302011816190682
:100950004CF40E94C000892B29F080E30E945204CD
:100960000E9455018091000190910101019799F435
:1009700024EF31E085B18C2785B98FE39FE10197A2
:10098000F1F700C0000021503109A1F710920101D8
:1009900010920001C3CF9FEF21EE84E091502040E0
:1009A0008040E1F700C00000B9CF80910201909132
:1009B0000301019797FD05C0909303018093020105
:1009C000C5CF1092030110920201CCCFEE0FFF1F92
:1009D0000590F491E02D09940F93083090F0982F32
:1009E000872F762F652F542F432F322F2227085021
:1009F000F4CF220F331F441F551F661F771F881F18
:100A0000991F0A95B2F70F9108952A0D3B1D4C1DB1
:100A10005D1D6E1D7F1D801F911F08950024A7FD81
:100A200000942A0F301D401D501D601D701D801D3B
:100A3000901D08952A193B094C095D096E097F092B
:100A4000800B910B08955058BB27AA270E943B05A5
:100A50000C9409070E94FB0638F00E94020720F060
:100A600039F49F3F19F426F40C94E8060EF4E0954F
:100A7000E7FB0C94E206E92F0E941A0758F3BA1715
:100A8000620773078407950720F079F4A6F50C94A4
:100A90003C070EF4E0950B2EBA2FA02D0B01B901E7
:100AA00090010C01CA01A0011124FF27591B99F0E4
:100AB000593F50F4503E68F11A16F040A22F232FF0
:100AC000342F4427585FF3CF469537952795A79540
:100AD000F0405395C9F77EF41F16BA0B620B730BE7
:100AE000840BBAF09150A1F0FF0FBB1F661F771F58
:100AF000881FC2F70EC0BA0F621F731F841F48F40D
:100B0000879577956795B795F7959E3F08F0B0CF95
:100B10009395880F08F09927EE0F9795879508957C
:100B20000E94BE0608F481E008950E94A9050C9475
:100B300009070E94020758F00E94FB0640F029F4C2
:100B40005F3F29F00C94E20651110C943D070C9480
:100B5000E8060E941A0768F39923B1F3552391F32D
:100B6000951B550BBB27AA2762177307840738F01C
:100B70009F5F5F4F220F331F441FAA1FA9F335D079
:100B80000E2E3AF0E0E832D091505040E695001C2D
:100B9000CAF72BD0FE2F29D0660F771F881FBB1FE7
:100BA000261737074807AB07B0E809F0BB0B802DC5
:100BB000BF01FF2793585F4F3AF09E3F510578F0F1
:100BC0000C94E2060C943D075F3FE4F3983ED4F3A7
:100BD000869577956795B795F7959F5FC9F7880FC5
:100BE000911D9695879597F90895E1E0660F771F17
:100BF000881FBB1F621773078407BA0720F0621BA8
:100C0000730B840BBA0BEE1F88F7E09508950E94D2
:100C10000E066894B1110C943D0708950E942207B6
:100C200088F09F5798F0B92F9927B751B0F0E1F0AD
:100C3000660F771F881F991F1AF0BA95C9F714C05D
:100C4000B13091F00E943C07B1E008950C943C074C
:100C5000672F782F8827B85F39F0B93FCCF3869596
:100C600077956795B395D9F73EF4909580957095F3
:100C700061957F4F8F4F9F4F089597FB16F40E9409
:100C8000EB060C948106E89409C097FB3EF490951E
:100C90008095709561957F4F8F4F9F4F9923A9F055
:100CA000F92F96E9BB279395F695879577956795E4
:100CB000B795F111F8CFFAF4BB0F11F460FF1BC028
:100CC0006F5F7F4F8F4F9F4F16C0882311F096E9BB
:100CD00011C0772321F09EE8872F762F05C0662369
:100CE00071F096E8862F70E060E02AF09A95660F22
:100CF000771F881FDAF7880F9695879597F90895DB
:100D0000E894F92F96EBFF2381F0121613061406D0
:100D1000440B9395F6958795779567955795404041
:100D2000FF23B9F71BC099270895882351F49850E1
:100D3000D2F7872B762F652F542F432F322F20E0A9
:100D4000B1F3121613061406440B88233AF09A9551
:100D5000440F551F661F771F881FCAF755234AF493
:100D6000440F551F11F460FF04C06F5F7F4F8F4F1A
:100D70009F4F880F9695879597F90895990F0008CA
:100D8000550FAA0BE0E8FEEF16161706E807F9075D
:100D9000C0F012161306E407F50798F0621B730BF8
:100DA000840B950B39F40A2661F0232B242B252B79
:100DB00021F408950A2609F4A140A6958FEF811D1C
:100DC000811D089597F99F6780E870E060E00895BD
:100DD0009FEF80EC08959095809570956095509563
:100DE0004095309521953F4F4F4F5F4F6F4F7F4F4D
:100DF0008F4F9F4F089500240A9416161706180661
:100E00000906089500240A9412161306140605060E
:100E10000895092E0394000C11F4882352F0BB0F9F
:100E200040F4BF2B11F460FF04C06F5F7F4F8F4F02
:100E30009F4F089557FD9058440F551F59F05F3F3D
:100E400071F04795880F97FB991F61F09F3F79F0EC
:100E500087950895121613061406551FF2CF46956E
:100E6000F1DF08C0161617061806991FF1CF8695F0
:100E70007105610508940895E894BB2766277727D4
:100E8000CB0197F908950E94BE0608F48FEF0895EC
:100E90000E945B070C9409070E94FB0638F00E9431
:100EA000020720F0952311F00C94E2060C94E8065A
:100EB00011240C943D070E941A0770F3959FC1F30B
:100EC000950F50E0551F629FF001729FBB27F00DF8
:100ED000B11D639FAA27F00DB11DAA1F649F66274D
:100EE000B00DA11D661F829F2227B00DA11D621F9C
:100EF000739FB00DA11D621F839FA00D611D221F56
:100F0000749F3327A00D611D231F849F600D211D39
:100F1000822F762F6A2F11249F5750409AF0F1F0BC
:100F200088234AF0EE0FFF1FBB1F661F771F881F25
:100F300091505040A9F79E3F510580F00C94E20675
:100F40000C943D075F3FE4F3983ED4F38695779584
:100F50006795B795F795E7959F5FC1F7FE2B880FCB
:0E0F6000911D9695879597F90895F894FFCF07
:00000001FF
